{"abi":[{"type":"constructor","inputs":[{"name":"initialTCR","type":"uint256","internalType":"uint256"}],"stateMutability":"nonpayable"},{"type":"function","name":"checkRecoveryMode","inputs":[{"name":"","type":"uint256","internalType":"uint256"}],"outputs":[{"name":"","type":"bool","internalType":"bool"}],"stateMutability":"view"},{"type":"function","name":"getTCR","inputs":[{"name":"","type":"uint256","internalType":"uint256"}],"outputs":[{"name":"","type":"uint256","internalType":"uint256"}],"stateMutability":"view"},{"type":"function","name":"setTCR","inputs":[{"name":"tcr","type":"uint256","internalType":"uint256"}],"outputs":[],"stateMutability":"nonpayable"}],"bytecode":{"object":"0x608060405234801561001057600080fd5b5060405161014f38038061014f83398101604081905261002f91610037565b600055610050565b60006020828403121561004957600080fd5b5051919050565b60f18061005e6000396000f3fe6080604052348015600f57600080fd5b5060043610603c5760003560e01c80633bb256341460415780634e443d9e146053578063b82f263d146084575b600080fd5b6051604c36600460a3565b600055565b005b606f605e36600460a3565b506000546714d1120d7b1600001190565b60405190151581526020015b60405180910390f35b6096608f36600460a3565b5060005490565b604051908152602001607b565b60006020828403121560b457600080fd5b503591905056fea26469706673582212209ffd2b9cdf0775e64fe72830353a7582fbf22154d9d1f5b3291c78480723300464736f6c63430008180033","linkReferences":{}},"methodIdentifiers":{"checkRecoveryMode(uint256)":"4e443d9e","getTCR(uint256)":"b82f263d","setTCR(uint256)":"3bb25634"},"id":40}