{"abi":[{"type":"constructor","inputs":[{"name":"initialPrice","type":"uint256","internalType":"uint256"}],"stateMutability":"nonpayable"},{"type":"function","name":"lastGoodPrice","inputs":[],"outputs":[{"name":"","type":"uint256","internalType":"uint256"}],"stateMutability":"view"},{"type":"function","name":"setPrice","inputs":[{"name":"price","type":"uint256","internalType":"uint256"}],"outputs":[],"stateMutability":"nonpayable"}],"bytecode":{"object":"0x608060405234801561001057600080fd5b5060405161010a38038061010a83398101604081905261002f91610037565b600055610050565b60006020828403121561004957600080fd5b5051919050565b60ac8061005e6000396000f3fe6080604052348015600f57600080fd5b506004361060325760003560e01c80630490be8314603757806391b7f5ed14604c575b600080fd5b60005460405190815260200160405180910390f35b605c6057366004605e565b600055565b005b600060208284031215606f57600080fd5b503591905056fea26469706673582212201f2a5153d8f53ac8ec51ac3e4a850eb28dffdf78ad54dba0d6d101c99f3d16bc64736f6c63430008180033","linkReferences":{}},"methodIdentifiers":{"lastGoodPrice()":"0490be83","setPrice(uint256)":"91b7f5ed"},"id":40}