{"abi":[{"type":"constructor","inputs":[{"name":"_token","type":"address","internalType":"address"}],"stateMutability":"nonpayable"},{"type":"function","name":"balanceOf","inputs":[{"name":"addr","type":"address","internalType":"address"}],"outputs":[{"name":"","type":"uint256","internalType":"uint256"}],"stateMutability":"view"},{"type":"function","name":"create_lock","inputs":[{"name":"value","type":"uint256","internalType":"uint256"},{"name":"unlock_time","type":"uint256","internalType":"uint256"}],"outputs":[],"stateMutability":"nonpayable"},{"type":"function","name":"increase_amount","inputs":[{"name":"value","type":"uint256","internalType":"uint256"}],"outputs":[],"stateMutability":"nonpayable"},{"type":"function","name":"increase_unlock_time","inputs":[{"name":"unlock_time","type":"uint256","internalType":"uint256"}],"outputs":[],"stateMutability":"nonpayable"},{"type":"function","name":"locked","inputs":[{"name":"addr","type":"address","internalType":"address"}],"outputs":[{"name":"","type":"tuple","internalType":"struct IVeBTC.LockedBalance","components":[{"name":"amount","type":"int128","internalType":"int128"},{"name":"end","type":"uint256","internalType":"uint256"}]}],"stateMutability":"view"},{"type":"function","name":"token","inputs":[],"outputs":[{"name":"","type":"address","internalType":"contract IERC20"}],"stateMutability":"view"},{"type":"function","name":"totalSupply","inputs":[],"outputs":[{"name":"","type":"uint256","internalType":"uint256"}],"stateMutability":"pure"},{"type":"function","name":"withdraw","inputs":[],"outputs":[],"stateMutability":"nonpayable"},{"type":"error","name":"AddressEmptyCode","inputs":[{"name":"target","type":"address","internalType":"address"}]},{"type":"error","name":"AddressInsufficientBalance","inputs":[{"name":"account","type":"address","internalType":"address"}]},{"type":"error","name":"FailedInnerCall","inputs":[]},{"type":"error","name":"SafeERC20FailedOperation","inputs":[{"name":"token","type":"address","internalType":"address"}]}],"bytecode":{"object":"0x60a060405234801561001057600080fd5b506040516109ee3803806109ee83398101604081905261002f91610040565b6001600160a01b0316608052610070565b60006020828403121561005257600080fd5b81516001600160a01b038116811461006957600080fd5b9392505050565b60805161094e6100a060003960008181610191015281816102d4015281816103690152610499015261094e6000f3fe608060405234801561001057600080fd5b50600436106100885760003560e01c806370a082311161005b57806370a08231146100d3578063cbf9fe5f14610105578063eff7a61214610179578063fc0c546a1461018c57600080fd5b806318160ddd1461008d5780633ccfd60b146100a35780634957677c146100ad57806365fc3873146100c0575b600080fd5b60005b6040519081526020015b60405180910390f35b6100ab6101cb565b005b6100ab6100bb366004610816565b610307565b6100ab6100ce36600461082f565b6103dd565b6100906100e1366004610851565b6001600160a01b03166000908152602081905260409020546001600160801b031690565b61015b610113366004610851565b6040805180820190915260008082526020820152506001600160a01b03166000908152602081815260409182902082518084019093528054600f0b8352600101549082015290565b604080518251600f0b8152602092830151928101929092520161009a565b6100ab610187366004610816565b61050a565b6101b37f000000000000000000000000000000000000000000000000000000000000000081565b6040516001600160a01b03909116815260200161009a565b3360009081526020818152604080832081518083019092528054600f0b80835260019091015492820192909252911261024b5760405162461bcd60e51b815260206004820152601960248201527f4d6f636b56654254433a206e6f7468696e67206c6f636b65640000000000000060448201526064015b60405180910390fd5b806020015142101561029f5760405162461bcd60e51b815260206004820152601b60248201527f4d6f636b56654254433a206c6f636b206e6f74206578706972656400000000006044820152606401610242565b805133600081815260208190526040812080546001600160801b0319168155600101556001600160801b0390911690610303907f00000000000000000000000000000000000000000000000000000000000000006001600160a01b031690836105d5565b5050565b33600090815260208190526040812054600f0b1361035c5760405162461bcd60e51b81526020600482015260126024820152714d6f636b56654254433a206e6f206c6f636b60701b6044820152606401610242565b6103916001600160a01b037f000000000000000000000000000000000000000000000000000000000000000016333084610639565b33600090815260208190526040812080548392906103b3908490600f0b61087a565b92506101000a8154816001600160801b030219169083600f0b6001600160801b0316021790555050565b33600090815260208190526040902054600f0b1561043d5760405162461bcd60e51b815260206004820152601960248201527f4d6f636b56654254433a20616c7265616479206c6f636b6564000000000000006044820152606401610242565b42811161048c5760405162461bcd60e51b815260206004820152601960248201527f4d6f636b56654254433a20756e6c6f636b20696e2070617374000000000000006044820152606401610242565b6104c16001600160a01b037f000000000000000000000000000000000000000000000000000000000000000016333085610639565b604080518082018252600f9390930b835260208084019283523360009081529081905220915182546001600160801b0319166001600160801b0390911617825551600190910155565b33600090815260208190526040812054600f0b1361055f5760405162461bcd60e51b81526020600482015260126024820152714d6f636b56654254433a206e6f206c6f636b60701b6044820152606401610242565b3360009081526020819052604090206001015481116105c05760405162461bcd60e51b815260206004820152601860248201527f4d6f636b56654254433a206e6f7420657874656e64696e6700000000000000006044820152606401610242565b33600090815260208190526040902060010155565b6040516001600160a01b0383811660248301526044820183905261063491859182169063a9059cbb906064015b604051602081830303815290604052915060e01b6020820180516001600160e01b038381831617835250505050610678565b505050565b6040516001600160a01b0384811660248301528381166044830152606482018390526106729186918216906323b872dd90608401610602565b50505050565b600061068d6001600160a01b038416836106db565b905080516000141580156106b25750808060200190518101906106b091906108c7565b155b1561063457604051635274afe760e01b81526001600160a01b0384166004820152602401610242565b60606106e9838360006106f2565b90505b92915050565b6060814710156107175760405163cd78605960e01b8152306004820152602401610242565b600080856001600160a01b0316848660405161073391906108e9565b60006040518083038185875af1925050503d8060008114610770576040519150601f19603f3d011682016040523d82523d6000602084013e610775565b606091505b5091509150610785868383610791565b925050505b9392505050565b6060826107a6576107a1826107ed565b61078a565b81511580156107bd57506001600160a01b0384163b155b156107e657604051639996b31560e01b81526001600160a01b0385166004820152602401610242565b508061078a565b8051156107fd5780518082602001fd5b604051630a12f52160e11b815260040160405180910390fd5b60006020828403121561082857600080fd5b5035919050565b6000806040838503121561084257600080fd5b50508035926020909101359150565b60006020828403121561086357600080fd5b81356001600160a01b038116811461078a57600080fd5b600f81810b9083900b016f7fffffffffffffffffffffffffffffff81136f7fffffffffffffffffffffffffffffff19821217156106ec57634e487b7160e01b600052601160045260246000fd5b6000602082840312156108d957600080fd5b8151801515811461078a57600080fd5b6000825160005b8181101561090a57602081860181015185830152016108f0565b50600092019182525091905056fea2646970667358221220536f842ff50283e7f03c3096dc9a8633e914b6366cb4948a23ed21e28c0b0f4164736f6c63430008180033","linkReferences":{}},"methodIdentifiers":{"balanceOf(address)":"70a08231","create_lock(uint256,uint256)":"65fc3873","increase_amount(uint256)":"4957677c","increase_unlock_time(uint256)":"eff7a612","locked(address)":"cbf9fe5f","token()":"fc0c546a","totalSupply()":"18160ddd","withdraw()":"3ccfd60b"},"id":41}