{"abi":[{"type":"constructor","inputs":[{"name":"_token","type":"address","internalType":"address"}],"stateMutability":"nonpayable"},{"type":"function","name":"addFees","inputs":[{"name":"recipient","type":"address","internalType":"address"},{"name":"amount","type":"uint256","internalType":"uint256"}],"outputs":[],"stateMutability":"nonpayable"},{"type":"function","name":"claim","inputs":[{"name":"addr","type":"address","internalType":"address"}],"outputs":[{"name":"amount","type":"uint256","internalType":"uint256"}],"stateMutability":"nonpayable"},{"type":"function","name":"claimable","inputs":[{"name":"addr","type":"address","internalType":"address"}],"outputs":[{"name":"","type":"uint256","internalType":"uint256"}],"stateMutability":"view"},{"type":"function","name":"token","inputs":[],"outputs":[{"name":"","type":"address","internalType":"address"}],"stateMutability":"view"},{"type":"error","name":"AddressEmptyCode","inputs":[{"name":"target","type":"address","internalType":"address"}]},{"type":"error","name":"AddressInsufficientBalance","inputs":[{"name":"account","type":"address","internalType":"address"}]},{"type":"error","name":"FailedInnerCall","inputs":[]},{"type":"error","name":"SafeERC20FailedOperation","inputs":[{"name":"token","type":"address","internalType":"address"}]}],"bytecode":{"object":"0x608060405234801561001057600080fd5b5060405161055338038061055383398101604081905261002f91610054565b600080546001600160a01b0319166001600160a01b0392909216919091179055610084565b60006020828403121561006657600080fd5b81516001600160a01b038116811461007d57600080fd5b9392505050565b6104c0806100936000396000f3fe608060405234801561001057600080fd5b506004361061004c5760003560e01c80631dfb9aae146100515780631e83409a14610066578063402914f51461008c578063fc0c546a146100b5575b600080fd5b61006461005f3660046103d3565b6100e0565b005b6100796100743660046103fd565b610129565b6040519081526020015b60405180910390f35b61007961009a3660046103fd565b6001600160a01b031660009081526001602052604090205490565b6000546100c8906001600160a01b031681565b6040516001600160a01b039091168152602001610083565b6000546100f8906001600160a01b0316333084610176565b6001600160a01b03821660009081526001602052604081208054839290610120908490610418565b90915550505050565b6001600160a01b0381166000908152600160205260409020548015610171576001600160a01b03808316600090815260016020526040812081905554610171911683836101e3565b919050565b6040516001600160a01b0384811660248301528381166044830152606482018390526101dd9186918216906323b872dd906084015b604051602081830303815290604052915060e01b6020820180516001600160e01b038381831617835250505050610219565b50505050565b6040516001600160a01b0383811660248301526044820183905261021491859182169063a9059cbb906064016101ab565b505050565b600061022e6001600160a01b03841683610281565b905080516000141580156102535750808060200190518101906102519190610439565b155b1561021457604051635274afe760e01b81526001600160a01b03841660048201526024015b60405180910390fd5b606061028f83836000610298565b90505b92915050565b6060814710156102bd5760405163cd78605960e01b8152306004820152602401610278565b600080856001600160a01b031684866040516102d9919061045b565b60006040518083038185875af1925050503d8060008114610316576040519150601f19603f3d011682016040523d82523d6000602084013e61031b565b606091505b509150915061032b868383610337565b925050505b9392505050565b60608261034c5761034782610393565b610330565b815115801561036357506001600160a01b0384163b155b1561038c57604051639996b31560e01b81526001600160a01b0385166004820152602401610278565b5080610330565b8051156103a35780518082602001fd5b604051630a12f52160e11b815260040160405180910390fd5b80356001600160a01b038116811461017157600080fd5b600080604083850312156103e657600080fd5b6103ef836103bc565b946020939093013593505050565b60006020828403121561040f57600080fd5b61028f826103bc565b8082018082111561029257634e487b7160e01b600052601160045260246000fd5b60006020828403121561044b57600080fd5b8151801515811461033057600080fd5b6000825160005b8181101561047c5760208186018101518583015201610462565b50600092019182525091905056fea2646970667358221220cea930b2060f8b97bf9bb394213dc835ea8a1527f86782c32336540c7f1ef29764736f6c63430008180033","linkReferences":{}},"methodIdentifiers":{"addFees(address,uint256)":"1dfb9aae","claim(address)":"1e83409a","claimable(address)":"402914f5","token()":"fc0c546a"},"id":39}