{"abi":[{"type":"constructor","inputs":[{"name":"_asset","type":"address","internalType":"address"},{"name":"_veBTC","type":"address","internalType":"address"},{"name":"_feeDist","type":"address","internalType":"address"},{"name":"_troveManager","type":"address","internalType":"address"},{"name":"_priceFeed","type":"address","internalType":"address"},{"name":"_initialOwner","type":"address","internalType":"address"}],"stateMutability":"nonpayable"},{"type":"function","name":"CCR","inputs":[],"outputs":[{"name":"","type":"uint256","internalType":"uint256"}],"stateMutability":"view"},{"type":"function","name":"MCR","inputs":[],"outputs":[{"name":"","type":"uint256","internalType":"uint256"}],"stateMutability":"view"},{"type":"function","name":"PRECISION","inputs":[],"outputs":[{"name":"","type":"uint256","internalType":"uint256"}],"stateMutability":"view"},{"type":"function","name":"acceptOwnership","inputs":[],"outputs":[],"stateMutability":"nonpayable"},{"type":"function","name":"asset","inputs":[],"outputs":[{"name":"","type":"address","internalType":"contract IERC20"}],"stateMutability":"view"},{"type":"function","name":"claimFees","inputs":[],"outputs":[{"name":"amount","type":"uint256","internalType":"uint256"}],"stateMutability":"nonpayable"},{"type":"function","name":"currentTCR","inputs":[],"outputs":[{"name":"","type":"uint256","internalType":"uint256"}],"stateMutability":"view"},{"type":"function","name":"deposit","inputs":[{"name":"amount","type":"uint256","internalType":"uint256"}],"outputs":[],"stateMutability":"nonpayable"},{"type":"function","name":"extendLock","inputs":[],"outputs":[],"stateMutability":"nonpayable"},{"type":"function","name":"feeDist","inputs":[],"outputs":[{"name":"","type":"address","internalType":"contract IFeeDistributor"}],"stateMutability":"view"},{"type":"function","name":"feeToken","inputs":[],"outputs":[{"name":"","type":"address","internalType":"contract IERC20"}],"stateMutability":"view"},{"type":"function","name":"harvest","inputs":[],"outputs":[{"name":"harvested","type":"uint256","internalType":"uint256"}],"stateMutability":"nonpayable"},{"type":"function","name":"isRecoveryMode","inputs":[],"outputs":[{"name":"","type":"bool","internalType":"bool"}],"stateMutability":"view"},{"type":"function","name":"lockDuration","inputs":[],"outputs":[{"name":"","type":"uint256","internalType":"uint256"}],"stateMutability":"view"},{"type":"function","name":"lockEnd","inputs":[],"outputs":[{"name":"","type":"uint256","internalType":"uint256"}],"stateMutability":"view"},{"type":"function","name":"owner","inputs":[],"outputs":[{"name":"","type":"address","internalType":"address"}],"stateMutability":"view"},{"type":"function","name":"pendingFees","inputs":[{"name":"user","type":"address","internalType":"address"}],"outputs":[{"name":"","type":"uint256","internalType":"uint256"}],"stateMutability":"view"},{"type":"function","name":"pendingOwner","inputs":[],"outputs":[{"name":"","type":"address","internalType":"address"}],"stateMutability":"view"},{"type":"function","name":"pendingRewards","inputs":[{"name":"","type":"address","internalType":"address"}],"outputs":[{"name":"","type":"uint256","internalType":"uint256"}],"stateMutability":"view"},{"type":"function","name":"priceFeed","inputs":[],"outputs":[{"name":"","type":"address","internalType":"contract IPriceFeed"}],"stateMutability":"view"},{"type":"function","name":"renounceOwnership","inputs":[],"outputs":[],"stateMutability":"nonpayable"},{"type":"function","name":"rewardPerSharePaid","inputs":[{"name":"","type":"address","internalType":"address"}],"outputs":[{"name":"","type":"uint256","internalType":"uint256"}],"stateMutability":"view"},{"type":"function","name":"rewardPerShareStored","inputs":[],"outputs":[{"name":"","type":"uint256","internalType":"uint256"}],"stateMutability":"view"},{"type":"function","name":"setLockDuration","inputs":[{"name":"_duration","type":"uint256","internalType":"uint256"}],"outputs":[],"stateMutability":"nonpayable"},{"type":"function","name":"shares","inputs":[{"name":"","type":"address","internalType":"address"}],"outputs":[{"name":"","type":"uint256","internalType":"uint256"}],"stateMutability":"view"},{"type":"function","name":"totalPrincipal","inputs":[],"outputs":[{"name":"","type":"uint256","internalType":"uint256"}],"stateMutability":"view"},{"type":"function","name":"totalShares","inputs":[],"outputs":[{"name":"","type":"uint256","internalType":"uint256"}],"stateMutability":"view"},{"type":"function","name":"transferOwnership","inputs":[{"name":"newOwner","type":"address","internalType":"address"}],"outputs":[],"stateMutability":"nonpayable"},{"type":"function","name":"troveManager","inputs":[],"outputs":[{"name":"","type":"address","internalType":"contract ITroveManager"}],"stateMutability":"view"},{"type":"function","name":"veBTC","inputs":[],"outputs":[{"name":"","type":"address","internalType":"contract IVeBTC"}],"stateMutability":"view"},{"type":"function","name":"withdraw","inputs":[{"name":"shareAmount","type":"uint256","internalType":"uint256"}],"outputs":[],"stateMutability":"nonpayable"},{"type":"event","name":"Deposited","inputs":[{"name":"user","type":"address","indexed":true,"internalType":"address"},{"name":"amount","type":"uint256","indexed":false,"internalType":"uint256"},{"name":"sharesIssued","type":"uint256","indexed":false,"internalType":"uint256"}],"anonymous":false},{"type":"event","name":"FeesClaimed","inputs":[{"name":"user","type":"address","indexed":true,"internalType":"address"},{"name":"amount","type":"uint256","indexed":false,"internalType":"uint256"}],"anonymous":false},{"type":"event","name":"FeesHarvested","inputs":[{"name":"amount","type":"uint256","indexed":false,"internalType":"uint256"}],"anonymous":false},{"type":"event","name":"LockDurationSet","inputs":[{"name":"newDuration","type":"uint256","indexed":false,"internalType":"uint256"}],"anonymous":false},{"type":"event","name":"LockExtended","inputs":[{"name":"newEnd","type":"uint256","indexed":false,"internalType":"uint256"}],"anonymous":false},{"type":"event","name":"OwnershipTransferStarted","inputs":[{"name":"previousOwner","type":"address","indexed":true,"internalType":"address"},{"name":"newOwner","type":"address","indexed":true,"internalType":"address"}],"anonymous":false},{"type":"event","name":"OwnershipTransferred","inputs":[{"name":"previousOwner","type":"address","indexed":true,"internalType":"address"},{"name":"newOwner","type":"address","indexed":true,"internalType":"address"}],"anonymous":false},{"type":"event","name":"Withdrawn","inputs":[{"name":"user","type":"address","indexed":true,"internalType":"address"},{"name":"sharesRedeemed","type":"uint256","indexed":false,"internalType":"uint256"},{"name":"amount","type":"uint256","indexed":false,"internalType":"uint256"}],"anonymous":false},{"type":"error","name":"AddressEmptyCode","inputs":[{"name":"target","type":"address","internalType":"address"}]},{"type":"error","name":"AddressInsufficientBalance","inputs":[{"name":"account","type":"address","internalType":"address"}]},{"type":"error","name":"EpochClosed","inputs":[]},{"type":"error","name":"FailedInnerCall","inputs":[]},{"type":"error","name":"FeeTokenEqualsAsset","inputs":[]},{"type":"error","name":"InsufficientShares","inputs":[{"name":"have","type":"uint256","internalType":"uint256"},{"name":"want","type":"uint256","internalType":"uint256"}]},{"type":"error","name":"LockStillActive","inputs":[{"name":"unlockTime","type":"uint256","internalType":"uint256"}]},{"type":"error","name":"OwnableInvalidOwner","inputs":[{"name":"owner","type":"address","internalType":"address"}]},{"type":"error","name":"OwnableUnauthorizedAccount","inputs":[{"name":"account","type":"address","internalType":"address"}]},{"type":"error","name":"ReentrancyGuardReentrantCall","inputs":[]},{"type":"error","name":"SafeERC20FailedOperation","inputs":[{"name":"token","type":"address","internalType":"address"}]},{"type":"error","name":"ZeroAmount","inputs":[]}],"bytecode":{"object":"0x6101406040526301e13380600a553480156200001a57600080fd5b5060405162001b4e38038062001b4e8339810160408190526200003d91620001d9565b806001600160a01b0381166200006d57604051631e4fbdf760e01b81526000600482015260240160405180910390fd5b62000078816200014e565b5060016002819055506000846001600160a01b031663fc0c546a6040518163ffffffff1660e01b8152600401602060405180830381865afa158015620000c2573d6000803e3d6000fd5b505050506040513d601f19601f82011682018060405250810190620000e891906200025a565b9050866001600160a01b0316816001600160a01b0316036200011d57604051631cbd9da560e01b815260040160405180910390fd5b6001600160a01b0396871660805294861660a0525091841660c052831660e05282166101005216610120526200027f565b600180546001600160a01b031916905562000169816200016c565b50565b600080546001600160a01b038381166001600160a01b0319831681178455604051919092169283917f8be0079c531659141344cd1fd0a4f28419497f9722a3daafe3b4186f6b6457e09190a35050565b80516001600160a01b0381168114620001d457600080fd5b919050565b60008060008060008060c08789031215620001f357600080fd5b620001fe87620001bc565b95506200020e60208801620001bc565b94506200021e60408801620001bc565b93506200022e60608801620001bc565b92506200023e60808801620001bc565b91506200024e60a08801620001bc565b90509295509295509295565b6000602082840312156200026d57600080fd5b6200027882620001bc565b9392505050565b60805160a05160c05160e05161010051610120516118086200034660003960008181610336015261109f01526000818161036d015281816109760152610bc60152600081816102c4015281816109470152610b97015260008181610428015261080c01526000818161044f015281816105eb0152818161067101528181610aa501528181610d6d01528181610de401528181610e7301528181610eeb0152610f3a01526000818161027c0152818161076901528181610d160152610d4b01526118086000f3fe608060405234801561001057600080fd5b50600436106101e55760003560e01c80636a67e4ec1161010f578063aaf5eb68116100a2578063e30c397811610071578063e30c397814610412578063e866284614610423578063f2c992a41461044a578063f2fde38b1461047157600080fd5b8063aaf5eb68146103c8578063b6b55f25146103d7578063ce7c2ac2146103ea578063d294f0931461040a57600080fd5b806379ba5097116100de57806379ba50971461039e5780638da5cb5b146103a65780639ff51a5b146103b7578063a0ee4501146103bf57600080fd5b80636a67e4ec14610358578063715018a614610360578063741bef1a14610368578063794e57241461038f57600080fd5b80633a98ef39116101875780634eb665af116101565780634eb665af146102f75780635733d58f1461030a57806359f095fa14610319578063647846a51461033157600080fd5b80633a98ef39146102b65780633d83908a146102bf5780634641257d146102e65780634b1533b2146102ee57600080fd5b806325d2a3f3116101c357806325d2a3f31461022f5780632e1a7d4d1461024257806331d7a2621461025757806338d52e0f1461027757600080fd5b806304554443146101ea5780630ab747f014610206578063129d564e1461020f575b600080fd5b6101f3600a5481565b6040519081526020015b60405180910390f35b6101f360065481565b6101f361021d366004611644565b60076020526000908152604090205481565b6101f361023d366004611644565b610484565b61025561025036600461166d565b610522565b005b6101f3610265366004611644565b60086020526000908152604090205481565b61029e7f000000000000000000000000000000000000000000000000000000000000000081565b6040516001600160a01b0390911681526020016101fd565b6101f360035481565b61029e7f000000000000000000000000000000000000000000000000000000000000000081565b6101f36107db565b6101f360055481565b61025561030536600461166d565b6108ff565b6101f36714d1120d7b16000081565b610321610943565b60405190151581526020016101fd565b61029e7f000000000000000000000000000000000000000000000000000000000000000081565b610255610a5a565b610255610b3e565b61029e7f000000000000000000000000000000000000000000000000000000000000000081565b6101f3670f43fc2c04ee000081565b610255610b52565b6000546001600160a01b031661029e565b6101f3610b93565b6101f360095481565b6101f3670de0b6b3a764000081565b6102556103e536600461166d565b610ca5565b6101f36103f8366004611644565b60046020526000908152604090205481565b6101f361105f565b6001546001600160a01b031661029e565b61029e7f000000000000000000000000000000000000000000000000000000000000000081565b61029e7f000000000000000000000000000000000000000000000000000000000000000081565b61025561047f366004611644565b61110d565b6000806000600354116104985760006104f4565b6001600160a01b038316600090815260076020526040902054600654670de0b6b3a7640000916104c79161169c565b6001600160a01b0385166000908152600460205260409020546104ea91906116af565b6104f491906116c6565b6001600160a01b03841660009081526008602052604090205490915061051b9082906116e8565b9392505050565b61052a61117e565b8060000361054b57604051631f2a200560e01b815260040160405180910390fd5b336000908152600460205260409020548111156105a1573360009081526004602081905260409182902054915163658ec5dd60e11b81526105989291849101918252602082015260400190565b60405180910390fd5b6009544210156105ca5760095460405163c4cfd5f760e01b815260040161059891815260200190565b6105d3336111a6565b60405163cbf9fe5f60e01b81523060048201526000907f00000000000000000000000000000000000000000000000000000000000000006001600160a01b03169063cbf9fe5f906024016040805180830381865afa158015610639573d6000803e3d6000fd5b505050506040513d601f19601f8201168201806040525081019061065d91906116fb565b905060008160000151600f0b13156106e3577f00000000000000000000000000000000000000000000000000000000000000006001600160a01b0316633ccfd60b6040518163ffffffff1660e01b8152600401600060405180830381600087803b1580156106ca57600080fd5b505af11580156106de573d6000803e3d6000fd5b505050505b6000600354600554846106f691906116af565b61070091906116c6565b3360009081526004602052604081208054929350859290919061072490849061169c565b92505081905550826003600082825461073d919061169c565b925050819055508060056000828254610756919061169c565b9091555061079090506001600160a01b037f000000000000000000000000000000000000000000000000000000000000000016338361126b565b604080518481526020810183905233917f92ccf450a286a957af52509bc1c9939d1a6a481783e142e41e2499f0bb66ebc691015b60405180910390a250506107d86001600255565b50565b60006107e561117e565b6003546000036107f7575060006108f2565b604051630f41a04d60e11b81523060048201527f00000000000000000000000000000000000000000000000000000000000000006001600160a01b031690631e83409a906024016020604051808303816000875af115801561085d573d6000803e3d6000fd5b505050506040513d601f19601f820116820180604052508101906108819190611768565b905080156108f25760035461089e670de0b6b3a7640000836116af565b6108a891906116c6565b600660008282546108b991906116e8565b90915550506040518181527ffe8981e94194cbbb8c05bbe9e35d5efd344dea70889a90ca458fd7da74672ec99060200160405180910390a15b6108fc6001600255565b90565b6109076112cf565b600a8190556040518181527fe8a8961cffd8b96789b71b359799d4edbe8389d8982198811e6664a0fb460ff4906020015b60405180910390a150565b60007f00000000000000000000000000000000000000000000000000000000000000006001600160a01b0316634e443d9e7f00000000000000000000000000000000000000000000000000000000000000006001600160a01b0316630490be836040518163ffffffff1660e01b8152600401602060405180830381865afa1580156109d2573d6000803e3d6000fd5b505050506040513d601f19601f820116820180604052508101906109f69190611768565b6040518263ffffffff1660e01b8152600401610a1491815260200190565b602060405180830381865afa158015610a31573d6000803e3d6000fd5b505050506040513d601f19601f82011682018060405250810190610a559190611781565b905090565b600062093a8080600a5442610a6f91906116e8565b610a7991906116c6565b610a8391906116af565b90506009548111156107d8576040516377fbd30960e11b8152600481018290527f00000000000000000000000000000000000000000000000000000000000000006001600160a01b03169063eff7a61290602401600060405180830381600087803b158015610af157600080fd5b505af1158015610b05573d6000803e3d6000fd5b5050506009829055506040518181527f2d3b38a507b3fb0ee1aaa054f2d952d0ac517f18f1cba8857c1b0e2ed9d5dbd990602001610938565b610b466112cf565b610b5060006112fc565b565b60015433906001600160a01b03168114610b8a5760405163118cdaa760e01b81526001600160a01b0382166004820152602401610598565b6107d8816112fc565b60007f00000000000000000000000000000000000000000000000000000000000000006001600160a01b031663b82f263d7f00000000000000000000000000000000000000000000000000000000000000006001600160a01b0316630490be836040518163ffffffff1660e01b8152600401602060405180830381865afa158015610c22573d6000803e3d6000fd5b505050506040513d601f19601f82011682018060405250810190610c469190611768565b6040518263ffffffff1660e01b8152600401610c6491815260200190565b602060405180830381865afa158015610c81573d6000803e3d6000fd5b505050506040513d601f19601f82011682018060405250810190610a559190611768565b610cad61117e565b80600003610cce57604051631f2a200560e01b815260040160405180910390fd5b6000600954118015610ce257506009544210155b15610d005760405163b01c554960e01b815260040160405180910390fd5b610d09336111a6565b610d3e6001600160a01b037f000000000000000000000000000000000000000000000000000000000000000016333084611315565b610d926001600160a01b037f0000000000000000000000000000000000000000000000000000000000000000167f000000000000000000000000000000000000000000000000000000000000000083611354565b600062093a8080600a5442610da791906116e8565b610db191906116c6565b610dbb91906116af565b9050600354600003610e53576040516365fc387360e01b815260048101839052602481018290527f00000000000000000000000000000000000000000000000000000000000000006001600160a01b0316906365fc3873906044015b600060405180830381600087803b158015610e3157600080fd5b505af1158015610e45573d6000803e3d6000fd5b505050600982905550610f9f565b600954811115610f2457604051631255d9df60e21b8152600481018390527f00000000000000000000000000000000000000000000000000000000000000006001600160a01b031690634957677c90602401600060405180830381600087803b158015610ebf57600080fd5b505af1158015610ed3573d6000803e3d6000fd5b50506040516377fbd30960e11b8152600481018490527f00000000000000000000000000000000000000000000000000000000000000006001600160a01b0316925063eff7a6129150602401610e17565b604051631255d9df60e21b8152600481018390527f00000000000000000000000000000000000000000000000000000000000000006001600160a01b031690634957677c90602401600060405180830381600087803b158015610f8657600080fd5b505af1158015610f9a573d6000803e3d6000fd5b505050505b6000600354600014610fca57600554600354610fbb90856116af565b610fc591906116c6565b610fcc565b825b33600090815260046020526040812080549293508392909190610ff09084906116e8565b92505081905550806003600082825461100991906116e8565b92505081905550826005600082825461102291906116e8565b9091555050604080518481526020810183905233917f73a19dd210f1a7f902193214c0ee91dd35ee5b4d920cba8d519eca65a7b488ca91016107c4565b600061106961117e565b611072336111a6565b503360009081526008602052604090205480156108f257336000818152600860205260408120556110ce907f00000000000000000000000000000000000000000000000000000000000000006001600160a01b0316908361126b565b60405181815233907f9493e5bbe4e8e0ac67284469a2d677403d0378a85a59e341d3abc433d0d9a2099060200160405180910390a26108fc6001600255565b6111156112cf565b600180546001600160a01b0383166001600160a01b031990911681179091556111466000546001600160a01b031690565b6001600160a01b03167f38d16b8cac22d99fc7c124b9cd0de2d3fa1faef420bfe791d8c362d765e2270060405160405180910390a350565b60028054036111a057604051633ee5aeb560e01b815260040160405180910390fd5b60028055565b6006546001600160a01b038216600090815260076020908152604080832054600490925290912054158015906111db57508082115b1561124e57670de0b6b3a76400006111f3828461169c565b6001600160a01b03851660009081526004602052604090205461121691906116af565b61122091906116c6565b6001600160a01b038416600090815260086020526040812080549091906112489084906116e8565b90915550505b506001600160a01b03909116600090815260076020526040902055565b6040516001600160a01b038381166024830152604482018390526112ca91859182169063a9059cbb906064015b604051602081830303815290604052915060e01b6020820180516001600160e01b0383818316178352505050506113e0565b505050565b6000546001600160a01b03163314610b505760405163118cdaa760e01b8152336004820152602401610598565b600180546001600160a01b03191690556107d881611443565b6040516001600160a01b03848116602483015283811660448301526064820183905261134e9186918216906323b872dd90608401611298565b50505050565b604080516001600160a01b038416602482015260448082018490528251808303909101815260649091019091526020810180516001600160e01b031663095ea7b360e01b1790526113a58482611493565b61134e576040516001600160a01b038481166024830152600060448301526113da91869182169063095ea7b390606401611298565b61134e84825b60006113f56001600160a01b0384168361153d565b9050805160001415801561141a5750808060200190518101906114189190611781565b155b156112ca57604051635274afe760e01b81526001600160a01b0384166004820152602401610598565b600080546001600160a01b038381166001600160a01b0319831681178455604051919092169283917f8be0079c531659141344cd1fd0a4f28419497f9722a3daafe3b4186f6b6457e09190a35050565b6000806000846001600160a01b0316846040516114b091906117a3565b6000604051808303816000865af19150503d80600081146114ed576040519150601f19603f3d011682016040523d82523d6000602084013e6114f2565b606091505b509150915081801561151c57508051158061151c57508080602001905181019061151c9190611781565b801561153257506000856001600160a01b03163b115b925050505b92915050565b606061051b8383600084600080856001600160a01b0316848660405161156391906117a3565b60006040518083038185875af1925050503d80600081146115a0576040519150601f19603f3d011682016040523d82523d6000602084013e6115a5565b606091505b50915091506115b58683836115bf565b9695505050505050565b6060826115d4576115cf8261161b565b61051b565b81511580156115eb57506001600160a01b0384163b155b1561161457604051639996b31560e01b81526001600160a01b0385166004820152602401610598565b508061051b565b80511561162b5780518082602001fd5b604051630a12f52160e11b815260040160405180910390fd5b60006020828403121561165657600080fd5b81356001600160a01b038116811461051b57600080fd5b60006020828403121561167f57600080fd5b5035919050565b634e487b7160e01b600052601160045260246000fd5b8181038181111561153757611537611686565b808202811582820484141761153757611537611686565b6000826116e357634e487b7160e01b600052601260045260246000fd5b500490565b8082018082111561153757611537611686565b60006040828403121561170d57600080fd5b6040516040810181811067ffffffffffffffff8211171561173e57634e487b7160e01b600052604160045260246000fd5b6040528251600f81900b811461175357600080fd5b81526020928301519281019290925250919050565b60006020828403121561177a57600080fd5b5051919050565b60006020828403121561179357600080fd5b8151801515811461051b57600080fd5b6000825160005b818110156117c457602081860181015185830152016117aa565b50600092019182525091905056fea26469706673582212202977bdc3f2d7b9033924a3bfecf8ef1fe057f6f95f1f18a5bd746db9d147655364736f6c63430008180033","linkReferences":{}},"methodIdentifiers":{"CCR()":"5733d58f","MCR()":"794e5724","PRECISION()":"aaf5eb68","acceptOwnership()":"79ba5097","asset()":"38d52e0f","claimFees()":"d294f093","currentTCR()":"9ff51a5b","deposit(uint256)":"b6b55f25","extendLock()":"6a67e4ec","feeDist()":"e8662846","feeToken()":"647846a5","harvest()":"4641257d","isRecoveryMode()":"59f095fa","lockDuration()":"04554443","lockEnd()":"a0ee4501","owner()":"8da5cb5b","pendingFees(address)":"25d2a3f3","pendingOwner()":"e30c3978","pendingRewards(address)":"31d7a262","priceFeed()":"741bef1a","renounceOwnership()":"715018a6","rewardPerSharePaid(address)":"129d564e","rewardPerShareStored()":"0ab747f0","setLockDuration(uint256)":"4eb665af","shares(address)":"ce7c2ac2","totalPrincipal()":"4b1533b2","totalShares()":"3a98ef39","transferOwnership(address)":"f2fde38b","troveManager()":"3d83908a","veBTC()":"f2c992a4","withdraw(uint256)":"2e1a7d4d"},"id":30}